{
  "address": "0xE84093Ca8284d58D32D75D1Ce006f746AE2453Ae",
  "abi": [
    {
      "inputs": [],
      "name": "StakeChain__BetAlreadyPlaced",
      "type": "error"
    },
    {
      "inputs": [],
      "name": "StakeChain__BetAmountZero",
      "type": "error"
    },
    {
      "inputs": [],
      "name": "StakeChain__BetNotOpen",
      "type": "error"
    },
    {
      "inputs": [],
      "name": "StakeChain__BetNotSettled",
      "type": "error"
    },
    {
      "inputs": [],
      "name": "StakeChain__BetStillOpen",
      "type": "error"
    },
    {
      "inputs": [],
      "name": "StakeChain__BetsAlreadySettled",
      "type": "error"
    },
    {
      "inputs": [],
      "name": "StakeChain__InvalidOutcome",
      "type": "error"
    },
    {
      "inputs": [],
      "name": "StakeChain__OnlyOwner",
      "type": "error"
    },
    {
      "inputs": [],
      "name": "StakeChain__Unauthorized",
      "type": "error"
    },
    {
      "anonymous": false,
      "inputs": [
        {
          "indexed": true,
          "internalType": "uint256",
          "name": "betEventId",
          "type": "uint256"
        },
        {
          "indexed": false,
          "internalType": "string",
          "name": "title",
          "type": "string"
        },
        {
          "indexed": false,
          "internalType": "string",
          "name": "description",
          "type": "string"
        },
        {
          "indexed": false,
          "internalType": "string[]",
          "name": "options",
          "type": "string[]"
        }
      ],
      "name": "BetEventCreated",
      "type": "event"
    },
    {
      "anonymous": false,
      "inputs": [
        {
          "indexed": true,
          "internalType": "uint256",
          "name": "betEventId",
          "type": "uint256"
        },
        {
          "indexed": true,
          "internalType": "address",
          "name": "player",
          "type": "address"
        },
        {
          "indexed": false,
          "internalType": "uint256",
          "name": "amount",
          "type": "uint256"
        },
        {
          "indexed": false,
          "internalType": "uint256",
          "name": "outcome",
          "type": "uint256"
        }
      ],
      "name": "BetPlaced",
      "type": "event"
    },
    {
      "anonymous": false,
      "inputs": [
        {
          "indexed": true,
          "internalType": "uint256",
          "name": "betEventId",
          "type": "uint256"
        },
        {
          "indexed": false,
          "internalType": "uint256",
          "name": "outcome",
          "type": "uint256"
        }
      ],
      "name": "BetSettled",
      "type": "event"
    },
    {
      "anonymous": false,
      "inputs": [
        {
          "indexed": true,
          "internalType": "address",
          "name": "player",
          "type": "address"
        },
        {
          "indexed": false,
          "internalType": "uint256",
          "name": "amount",
          "type": "uint256"
        }
      ],
      "name": "SCHAINDistributed",
      "type": "event"
    },
    {
      "anonymous": false,
      "inputs": [
        {
          "indexed": true,
          "internalType": "uint256",
          "name": "betEventId",
          "type": "uint256"
        },
        {
          "indexed": true,
          "internalType": "address",
          "name": "player",
          "type": "address"
        },
        {
          "indexed": false,
          "internalType": "uint256",
          "name": "amount",
          "type": "uint256"
        }
      ],
      "name": "ShareClaimed",
      "type": "event"
    },
    {
      "inputs": [],
      "name": "OWNER",
      "outputs": [
        {
          "internalType": "address",
          "name": "",
          "type": "address"
        }
      ],
      "stateMutability": "view",
      "type": "function"
    },
    {
      "inputs": [],
      "name": "PERCENTAGE",
      "outputs": [
        {
          "internalType": "uint256",
          "name": "",
          "type": "uint256"
        }
      ],
      "stateMutability": "view",
      "type": "function"
    },
    {
      "inputs": [],
      "name": "PLATFORM_FEE",
      "outputs": [
        {
          "internalType": "uint256",
          "name": "",
          "type": "uint256"
        }
      ],
      "stateMutability": "view",
      "type": "function"
    },
    {
      "inputs": [],
      "name": "PLATFORM_WALLET",
      "outputs": [
        {
          "internalType": "address",
          "name": "",
          "type": "address"
        }
      ],
      "stateMutability": "view",
      "type": "function"
    },
    {
      "inputs": [],
      "name": "SETTLE_REWARD",
      "outputs": [
        {
          "internalType": "uint256",
          "name": "",
          "type": "uint256"
        }
      ],
      "stateMutability": "view",
      "type": "function"
    },
    {
      "inputs": [],
      "name": "SUSTAINABILITY_FEE",
      "outputs": [
        {
          "internalType": "uint256",
          "name": "",
          "type": "uint256"
        }
      ],
      "stateMutability": "view",
      "type": "function"
    },
    {
      "inputs": [],
      "name": "SUSTAINABILITY_FEE_COLLECTOR",
      "outputs": [
        {
          "internalType": "address",
          "name": "",
          "type": "address"
        }
      ],
      "stateMutability": "view",
      "type": "function"
    },
    {
      "inputs": [
        {
          "internalType": "uint256",
          "name": "_amount",
          "type": "uint256"
        }
      ],
      "name": "UpdatePlatformFee",
      "outputs": [],
      "stateMutability": "nonpayable",
      "type": "function"
    },
    {
      "inputs": [
        {
          "internalType": "uint256",
          "name": "_amount",
          "type": "uint256"
        }
      ],
      "name": "UpdateSustainabilityFee",
      "outputs": [],
      "stateMutability": "nonpayable",
      "type": "function"
    },
    {
      "inputs": [
        {
          "internalType": "address",
          "name": "newCollector",
          "type": "address"
        }
      ],
      "name": "UpdateSustainabilityFeeCollector",
      "outputs": [],
      "stateMutability": "nonpayable",
      "type": "function"
    },
    {
      "inputs": [],
      "name": "betEventCount",
      "outputs": [
        {
          "internalType": "uint256",
          "name": "",
          "type": "uint256"
        }
      ],
      "stateMutability": "view",
      "type": "function"
    },
    {
      "inputs": [
        {
          "internalType": "uint256",
          "name": "",
          "type": "uint256"
        }
      ],
      "name": "betEvents",
      "outputs": [
        {
          "internalType": "string",
          "name": "title",
          "type": "string"
        },
        {
          "internalType": "string",
          "name": "description",
          "type": "string"
        },
        {
          "internalType": "uint256",
          "name": "totalPool",
          "type": "uint256"
        },
        {
          "internalType": "uint256",
          "name": "winnerPool",
          "type": "uint256"
        },
        {
          "internalType": "uint256",
          "name": "loserPool",
          "type": "uint256"
        },
        {
          "internalType": "uint256",
          "name": "outcome",
          "type": "uint256"
        },
        {
          "internalType": "bool",
          "name": "betOpen",
          "type": "bool"
        },
        {
          "internalType": "bool",
          "name": "betSettled",
          "type": "bool"
        }
      ],
      "stateMutability": "view",
      "type": "function"
    },
    {
      "inputs": [
        {
          "internalType": "uint256",
          "name": "_betEventId",
          "type": "uint256"
        },
        {
          "internalType": "uint256",
          "name": "_outcome",
          "type": "uint256"
        }
      ],
      "name": "closeBetting",
      "outputs": [],
      "stateMutability": "nonpayable",
      "type": "function"
    },
    {
      "inputs": [
        {
          "internalType": "string",
          "name": "_title",
          "type": "string"
        },
        {
          "internalType": "string",
          "name": "_description",
          "type": "string"
        },
        {
          "internalType": "string[]",
          "name": "_options",
          "type": "string[]"
        }
      ],
      "name": "createBetEvent",
      "outputs": [],
      "stateMutability": "nonpayable",
      "type": "function"
    },
    {
      "inputs": [
        {
          "internalType": "uint256",
          "name": "_betEventId",
          "type": "uint256"
        },
        {
          "internalType": "uint256",
          "name": "_outcome",
          "type": "uint256"
        }
      ],
      "name": "placeBet",
      "outputs": [],
      "stateMutability": "payable",
      "type": "function"
    },
    {
      "inputs": [
        {
          "internalType": "uint256",
          "name": "_betEventId",
          "type": "uint256"
        }
      ],
      "name": "settleBets",
      "outputs": [],
      "stateMutability": "nonpayable",
      "type": "function"
    },
    {
      "inputs": [
        {
          "internalType": "uint256",
          "name": "_betEventId",
          "type": "uint256"
        }
      ],
      "name": "withdrawFunds",
      "outputs": [],
      "stateMutability": "nonpayable",
      "type": "function"
    }
  ],
  "transactionHash": "0x71688f2b469df2f1677a9e8dc883156744ce171aa9bc77040ffa2a4208718d87",
  "args": [],
  "numDeployments": 2,
  "solcInputHash": "fe6b238bf68e897441a44f3f8d1b425e",
  "bytecode": "0x6080604052600080546001600160a01b03191673ffd0a549e6982fb553302274d342dd6673b0deee179055670de0b6b3a7640000600155662386f26fc100006002556706f05b59d3b20000600355348015605857600080fd5b5060016004556114298061006d6000396000f3fe6080604052600436106100fd5760003560e01c806334fbc9a11161009557806366da537f1161006457806366da537f146102935780637b4ce223146102b35780637e34647b146102d3578063aab9abdf146102f3578063eb8b12d41461031357600080fd5b806334fbc9a1146102345780633f558a651461024a5780634afe62b51461026a5780635541f0bd1461027d57600080fd5b80632644fd26116100d15780632644fd26146101c1578063293315f2146101e15780632c309127146101fe5780632e9be1a81461021e57600080fd5b8062f5afa814610102578063107a2c5e1461012b578063117803e31461015f578063155dd5ee1461019f575b600080fd5b34801561010e57600080fd5b5061011860035481565b6040519081526020015b60405180910390f35b34801561013757600080fd5b5061014b610146366004610e85565b61033b565b604051610122989796959493929190610ee4565b34801561016b57600080fd5b5061018773302ce12901038f313e621626372784ef3301aa6081565b6040516001600160a01b039091168152602001610122565b3480156101ab57600080fd5b506101bf6101ba366004610e85565b610492565b005b3480156101cd57600080fd5b506101bf6101dc366004610e85565b610544565b3480156101ed57600080fd5b5061011868056bc75e2d6310000081565b34801561020a57600080fd5b506101bf610219366004610e85565b61057c565b34801561022a57600080fd5b5061011860055481565b34801561024057600080fd5b5061011860015481565b34801561025657600080fd5b506101bf610265366004610e85565b610988565b6101bf610278366004610f42565b6109c0565b34801561028957600080fd5b5061011860025481565b34801561029f57600080fd5b506101bf6102ae366004610f42565b610b32565b3480156102bf57600080fd5b506101bf6102ce366004610f64565b610c37565b3480156102df57600080fd5b50600054610187906001600160a01b031681565b3480156102ff57600080fd5b506101bf61030e36600461104b565b610c8c565b34801561031f57600080fd5b5061018773d54d09a4154f47ba8a82e6bda548bcbc348a83e281565b60066020526000908152604090208054819061035690611176565b80601f016020809104026020016040519081016040528092919081815260200182805461038290611176565b80156103cf5780601f106103a4576101008083540402835291602001916103cf565b820191906000526020600020905b8154815290600101906020018083116103b257829003601f168201915b5050505050908060010180546103e490611176565b80601f016020809104026020016040519081016040528092919081815260200182805461041090611176565b801561045d5780601f106104325761010080835404028352916020019161045d565b820191906000526020600020905b81548152906001019060200180831161044057829003601f168201915b505050600384015460048501546005860154600687015460079097015495969295919450925060ff8082169161010090041688565b3373302ce12901038f313e621626372784ef3301aa60146104c6576040516319b83d2d60e31b815260040160405180910390fd5b6000818152600660205260409020600701548190610100900460ff166104ff57604051636befeadb60e11b815260040160405180910390fd5b60405173302ce12901038f313e621626372784ef3301aa60904780156108fc02916000818181858888f1935050505015801561053f573d6000803e3d6000fd5b505050565b3373302ce12901038f313e621626372784ef3301aa6014610577576040516265d69360e51b815260040160405180910390fd5b600155565b610584610d6b565b600081815260066020526040902060070154819060ff16156105b957604051632685b40360e01b815260040160405180910390fd5b600082815260066020526040902060070154610100900460ff16156105f157604051630229639160e61b815260040160405180910390fd5b6000828152600660205260408120905b600a8201548110156106d757600082600a018281548110610624576106246111b0565b600091825260208083209091015460068601546001600160a01b039091168084526008870190925260409092206001015490925003610698576001600160a01b03811660009081526008840160205260408120546004850180549192909161068d9084906111dc565b909155506106ce9050565b6001600160a01b0381166000908152600884016020526040812054600585018054919290916106c89084906111dc565b90915550505b50600101610601565b50600068056bc75e2d6310000060015483600301546106f691906111f5565b610700919061120c565b9050600068056bc75e2d63100000600354846003015461072091906111f5565b61072a919061120c565b9050600068056bc75e2d63100000600254856003015461074a91906111f5565b610754919061120c565b90506000818385876003015461076a919061122e565b610774919061122e565b61077e919061122e565b60405190915073d54d09a4154f47ba8a82e6bda548bcbc348a83e29085156108fc029086906000818181858888f193505050501580156107c2573d6000803e3d6000fd5b50600080546040516001600160a01b039091169185156108fc02918691818181858888f193505050501580156107fc573d6000803e3d6000fd5b5060005b600a8601548110156108f557600086600a018281548110610823576108236111b0565b600091825260208083209091015460068a01546001600160a01b0390911680845260088b01909252604090922060010154909250036108ec5760048701546001600160a01b038216600090815260088901602052604081205490919061088a9086906111f5565b610894919061120c565b6001600160a01b038316600081815260088b016020526040902054919250906108fc906108c190846111dc565b6040518115909202916000818181858888f193505050501580156108e9573d6000803e3d6000fd5b50505b50600101610800565b50604051339083156108fc029084906000818181858888f19350505050158015610923573d6000803e3d6000fd5b5060078501805461ff001916610100179055600685015460405188917f209446440b3bc7b90cab90b2b8095e5f368dbec807cfbc01354237a11b45c6369161096d91815260200190565b60405180910390a25050505050506109856001600455565b50565b3373302ce12901038f313e621626372784ef3301aa60146109bb576040516265d69360e51b815260040160405180910390fd5b600355565b600082815260066020526040902060070154829060ff166109f4576040516308fcb87160e41b815260040160405180910390fd5b34600003610a1557604051633e86adad60e21b815260040160405180910390fd5b600083815260066020908152604080832033845260080190915290206002015460ff1615610a565760405163ed5b8a8960e01b815260040160405180910390fd5b60008381526006602090815260408083208151606081018352348082528185018881528285018781523380895260088601885295882093518455905160018085019190915590516002909301805460ff191693151593909317909255600a83018054928301815586529385200180546001600160a01b03191690921790915560038101805491939091610aea9084906111dc565b90915550506040805134815260208101859052339186917f1b8a9031cb9351278d70a994f81536e9e08c91162e64f92b2fe4766fb7a891b4910160405180910390a350505050565b3373302ce12901038f313e621626372784ef3301aa6014610b66576040516319b83d2d60e31b815260040160405180910390fd5b600082815260066020526040902060070154829060ff16610b9a576040516308fcb87160e41b815260040160405180910390fd5b811580610bb7575060008381526006602052604090206002015482115b15610bd5576040516392e4a3e560e01b815260040160405180910390fd5b600083815260066020819052604091829020908101849055600701805460ff191690555183907f209446440b3bc7b90cab90b2b8095e5f368dbec807cfbc01354237a11b45c63690610c2a9085815260200190565b60405180910390a2505050565b3373302ce12901038f313e621626372784ef3301aa6014610c6a576040516265d69360e51b815260040160405180910390fd5b600080546001600160a01b0319166001600160a01b0392909216919091179055565b3373302ce12901038f313e621626372784ef3301aa6014610cc0576040516319b83d2d60e31b815260040160405180910390fd5b60058054906000610cd083611241565b9091555050600554600090815260066020526040902080610cf185826112a8565b5060018101610d0084826112a8565b508151610d169060028301906020850190610dc8565b5060078101805460ff191660011790556005546040517fc4d79e090dbd35b18979cb0daf964422ff9a5547cc9af41b9101f2779b3735ca90610d5d90879087908790611367565b60405180910390a250505050565b600260045403610dc15760405162461bcd60e51b815260206004820152601f60248201527f5265656e7472616e637947756172643a207265656e7472616e742063616c6c00604482015260640160405180910390fd5b6002600455565b828054828255906000526020600020908101928215610e0e579160200282015b82811115610e0e5782518290610dfe90826112a8565b5091602001919060010190610de8565b50610e1a929150610e1e565b5090565b80821115610e1a576000610e328282610e3b565b50600101610e1e565b508054610e4790611176565b6000825580601f10610e57575050565b601f01602090049060005260206000209081019061098591905b80821115610e1a5760008155600101610e71565b600060208284031215610e9757600080fd5b5035919050565b6000815180845260005b81811015610ec457602081850181015186830182015201610ea8565b506000602082860101526020601f19601f83011685010191505092915050565b61010081526000610ef961010083018b610e9e565b8281036020840152610f0b818b610e9e565b604084019990995250506060810195909552608085019390935260a0840191909152151560c0830152151560e09091015292915050565b60008060408385031215610f5557600080fd5b50508035926020909101359150565b600060208284031215610f7657600080fd5b81356001600160a01b0381168114610f8d57600080fd5b9392505050565b634e487b7160e01b600052604160045260246000fd5b604051601f8201601f1916810167ffffffffffffffff81118282101715610fd357610fd3610f94565b604052919050565b600082601f830112610fec57600080fd5b813567ffffffffffffffff81111561100657611006610f94565b611019601f8201601f1916602001610faa565b81815284602083860101111561102e57600080fd5b816020850160208301376000918101602001919091529392505050565b60008060006060848603121561106057600080fd5b833567ffffffffffffffff81111561107757600080fd5b61108386828701610fdb565b935050602084013567ffffffffffffffff8111156110a057600080fd5b6110ac86828701610fdb565b925050604084013567ffffffffffffffff8111156110c957600080fd5b8401601f810186136110da57600080fd5b803567ffffffffffffffff8111156110f4576110f4610f94565b8060051b61110460208201610faa565b9182526020818401810192908101908984111561112057600080fd5b6020850192505b8383101561116757823567ffffffffffffffff81111561114657600080fd5b6111558b602083890101610fdb565b83525060209283019290910190611127565b80955050505050509250925092565b600181811c9082168061118a57607f821691505b6020821081036111aa57634e487b7160e01b600052602260045260246000fd5b50919050565b634e487b7160e01b600052603260045260246000fd5b634e487b7160e01b600052601160045260246000fd5b808201808211156111ef576111ef6111c6565b92915050565b80820281158282048414176111ef576111ef6111c6565b60008261122957634e487b7160e01b600052601260045260246000fd5b500490565b818103818111156111ef576111ef6111c6565b600060018201611253576112536111c6565b5060010190565b601f82111561053f57806000526020600020601f840160051c810160208510156112815750805b601f840160051c820191505b818110156112a1576000815560010161128d565b5050505050565b815167ffffffffffffffff8111156112c2576112c2610f94565b6112d6816112d08454611176565b8461125a565b6020601f82116001811461130a57600083156112f25750848201515b600019600385901b1c1916600184901b1784556112a1565b600084815260208120601f198516915b8281101561133a578785015182556020948501946001909201910161131a565b50848210156113585786840151600019600387901b60f8161c191681555b50505050600190811b01905550565b60608152600061137a6060830186610e9e565b828103602084015261138c8186610e9e565b9050828103604084015280845180835260208301915060208160051b8401016020870160005b838110156113e457601f198684030185526113ce838351610e9e565b60209586019590935091909101906001016113b2565b5090999850505050505050505056fea2646970667358221220f82f3936b5ff21f4b1e06c9ab317ffd5549992fbbe0673efb627ffeb805c69ba64736f6c634300081a0033",
  "devdoc": {
    "custom:security-contact": "franzquarshie@gmail.com",
    "errors": {
      "StakeChain__Unauthorized()": [
        {
          "custom:contact": "franzquarshie@gmail.com"
        }
      ]
    },
    "kind": "dev",
    "methods": {
      "UpdatePlatformFee(uint256)": {
        "details": "Administrative",
        "params": {
          "_amount": "New platform fee"
        }
      },
      "UpdateSustainabilityFee(uint256)": {
        "details": "Administrative",
        "params": {
          "_amount": "New Sustainability fee"
        }
      },
      "UpdateSustainabilityFeeCollector(address)": {
        "details": "Administrative",
        "params": {
          "newCollector": "Update sustainability fee collector"
        }
      }
    },
    "title": "StakeChain",
    "version": 1
  },
  "userdoc": {
    "errors": {
      "StakeChain__Unauthorized()": [
        {
          "notice": "This contract controls the states of the StateChain contract"
        }
      ]
    },
    "kind": "user",
    "methods": {
      "PERCENTAGE()": {
        "notice": "Base percentage used for calculations, representing 100%"
      },
      "PLATFORM_FEE()": {
        "notice": "Fee percentage deducted from each transaction"
      },
      "PLATFORM_WALLET()": {
        "notice": "Platform Account"
      },
      "SETTLE_REWARD()": {
        "notice": "Settle reward percentage for the user who settles the bets"
      },
      "SUSTAINABILITY_FEE()": {
        "notice": "Percentage that goes to environment sustainability"
      }
    },
    "version": 1
  },
  "storageLayout": {
    "storage": [
      {
        "astId": 658,
        "contract": "contracts/StakeChain.sol:StakeChain",
        "label": "SUSTAINABILITY_FEE_COLLECTOR",
        "offset": 0,
        "slot": "0",
        "type": "t_address"
      },
      {
        "astId": 662,
        "contract": "contracts/StakeChain.sol:StakeChain",
        "label": "PLATFORM_FEE",
        "offset": 0,
        "slot": "1",
        "type": "t_uint256"
      },
      {
        "astId": 666,
        "contract": "contracts/StakeChain.sol:StakeChain",
        "label": "SETTLE_REWARD",
        "offset": 0,
        "slot": "2",
        "type": "t_uint256"
      },
      {
        "astId": 670,
        "contract": "contracts/StakeChain.sol:StakeChain",
        "label": "SUSTAINABILITY_FEE",
        "offset": 0,
        "slot": "3",
        "type": "t_uint256"
      },
      {
        "astId": 10,
        "contract": "contracts/StakeChain.sol:StakeChain",
        "label": "_status",
        "offset": 0,
        "slot": "4",
        "type": "t_uint256"
      },
      {
        "astId": 123,
        "contract": "contracts/StakeChain.sol:StakeChain",
        "label": "betEventCount",
        "offset": 0,
        "slot": "5",
        "type": "t_uint256"
      },
      {
        "astId": 128,
        "contract": "contracts/StakeChain.sol:StakeChain",
        "label": "betEvents",
        "offset": 0,
        "slot": "6",
        "type": "t_mapping(t_uint256,t_struct(BetEvent)121_storage)"
      }
    ],
    "types": {
      "t_address": {
        "encoding": "inplace",
        "label": "address",
        "numberOfBytes": "20"
      },
      "t_array(t_address)dyn_storage": {
        "base": "t_address",
        "encoding": "dynamic_array",
        "label": "address[]",
        "numberOfBytes": "32"
      },
      "t_array(t_string_storage)dyn_storage": {
        "base": "t_string_storage",
        "encoding": "dynamic_array",
        "label": "string[]",
        "numberOfBytes": "32"
      },
      "t_bool": {
        "encoding": "inplace",
        "label": "bool",
        "numberOfBytes": "1"
      },
      "t_mapping(t_address,t_struct(Bet)89_storage)": {
        "encoding": "mapping",
        "key": "t_address",
        "label": "mapping(address => struct StakeChain.Bet)",
        "numberOfBytes": "32",
        "value": "t_struct(Bet)89_storage"
      },
      "t_mapping(t_address,t_uint256)": {
        "encoding": "mapping",
        "key": "t_address",
        "label": "mapping(address => uint256)",
        "numberOfBytes": "32",
        "value": "t_uint256"
      },
      "t_mapping(t_uint256,t_struct(BetEvent)121_storage)": {
        "encoding": "mapping",
        "key": "t_uint256",
        "label": "mapping(uint256 => struct StakeChain.BetEvent)",
        "numberOfBytes": "32",
        "value": "t_struct(BetEvent)121_storage"
      },
      "t_string_storage": {
        "encoding": "bytes",
        "label": "string",
        "numberOfBytes": "32"
      },
      "t_struct(Bet)89_storage": {
        "encoding": "inplace",
        "label": "struct StakeChain.Bet",
        "members": [
          {
            "astId": 84,
            "contract": "contracts/StakeChain.sol:StakeChain",
            "label": "amount",
            "offset": 0,
            "slot": "0",
            "type": "t_uint256"
          },
          {
            "astId": 86,
            "contract": "contracts/StakeChain.sol:StakeChain",
            "label": "outcome",
            "offset": 0,
            "slot": "1",
            "type": "t_uint256"
          },
          {
            "astId": 88,
            "contract": "contracts/StakeChain.sol:StakeChain",
            "label": "claimed",
            "offset": 0,
            "slot": "2",
            "type": "t_bool"
          }
        ],
        "numberOfBytes": "96"
      },
      "t_struct(BetEvent)121_storage": {
        "encoding": "inplace",
        "label": "struct StakeChain.BetEvent",
        "members": [
          {
            "astId": 91,
            "contract": "contracts/StakeChain.sol:StakeChain",
            "label": "title",
            "offset": 0,
            "slot": "0",
            "type": "t_string_storage"
          },
          {
            "astId": 93,
            "contract": "contracts/StakeChain.sol:StakeChain",
            "label": "description",
            "offset": 0,
            "slot": "1",
            "type": "t_string_storage"
          },
          {
            "astId": 96,
            "contract": "contracts/StakeChain.sol:StakeChain",
            "label": "options",
            "offset": 0,
            "slot": "2",
            "type": "t_array(t_string_storage)dyn_storage"
          },
          {
            "astId": 98,
            "contract": "contracts/StakeChain.sol:StakeChain",
            "label": "totalPool",
            "offset": 0,
            "slot": "3",
            "type": "t_uint256"
          },
          {
            "astId": 100,
            "contract": "contracts/StakeChain.sol:StakeChain",
            "label": "winnerPool",
            "offset": 0,
            "slot": "4",
            "type": "t_uint256"
          },
          {
            "astId": 102,
            "contract": "contracts/StakeChain.sol:StakeChain",
            "label": "loserPool",
            "offset": 0,
            "slot": "5",
            "type": "t_uint256"
          },
          {
            "astId": 104,
            "contract": "contracts/StakeChain.sol:StakeChain",
            "label": "outcome",
            "offset": 0,
            "slot": "6",
            "type": "t_uint256"
          },
          {
            "astId": 106,
            "contract": "contracts/StakeChain.sol:StakeChain",
            "label": "betOpen",
            "offset": 0,
            "slot": "7",
            "type": "t_bool"
          },
          {
            "astId": 108,
            "contract": "contracts/StakeChain.sol:StakeChain",
            "label": "betSettled",
            "offset": 1,
            "slot": "7",
            "type": "t_bool"
          },
          {
            "astId": 113,
            "contract": "contracts/StakeChain.sol:StakeChain",
            "label": "bets",
            "offset": 0,
            "slot": "8",
            "type": "t_mapping(t_address,t_struct(Bet)89_storage)"
          },
          {
            "astId": 117,
            "contract": "contracts/StakeChain.sol:StakeChain",
            "label": "shares",
            "offset": 0,
            "slot": "9",
            "type": "t_mapping(t_address,t_uint256)"
          },
          {
            "astId": 120,
            "contract": "contracts/StakeChain.sol:StakeChain",
            "label": "players",
            "offset": 0,
            "slot": "10",
            "type": "t_array(t_address)dyn_storage"
          }
        ],
        "numberOfBytes": "352"
      },
      "t_uint256": {
        "encoding": "inplace",
        "label": "uint256",
        "numberOfBytes": "32"
      }
    }
  }
}