{
  "address": "0x4EB686F3CAe07790baAA7c8f4427405fa33775f6",
  "abi": [
    {
      "inputs": [],
      "name": "StakeChain__BetAlreadyPlaced",
      "type": "error"
    },
    {
      "inputs": [],
      "name": "StakeChain__BetAmountZero",
      "type": "error"
    },
    {
      "inputs": [],
      "name": "StakeChain__BetNotOpen",
      "type": "error"
    },
    {
      "inputs": [],
      "name": "StakeChain__BetNotSettled",
      "type": "error"
    },
    {
      "inputs": [],
      "name": "StakeChain__BetStillOpen",
      "type": "error"
    },
    {
      "inputs": [],
      "name": "StakeChain__BetsAlreadySettled",
      "type": "error"
    },
    {
      "inputs": [],
      "name": "StakeChain__InvalidOutcome",
      "type": "error"
    },
    {
      "inputs": [],
      "name": "StakeChain__OnlyOwner",
      "type": "error"
    },
    {
      "inputs": [],
      "name": "StakeChain__Unauthorized",
      "type": "error"
    },
    {
      "anonymous": false,
      "inputs": [
        {
          "indexed": true,
          "internalType": "uint256",
          "name": "betEventId",
          "type": "uint256"
        },
        {
          "indexed": false,
          "internalType": "string",
          "name": "title",
          "type": "string"
        },
        {
          "indexed": false,
          "internalType": "string",
          "name": "description",
          "type": "string"
        },
        {
          "indexed": false,
          "internalType": "string[]",
          "name": "options",
          "type": "string[]"
        }
      ],
      "name": "BetEventCreated",
      "type": "event"
    },
    {
      "anonymous": false,
      "inputs": [
        {
          "indexed": true,
          "internalType": "uint256",
          "name": "betEventId",
          "type": "uint256"
        },
        {
          "indexed": true,
          "internalType": "address",
          "name": "player",
          "type": "address"
        },
        {
          "indexed": false,
          "internalType": "uint256",
          "name": "amount",
          "type": "uint256"
        },
        {
          "indexed": false,
          "internalType": "uint256",
          "name": "outcome",
          "type": "uint256"
        }
      ],
      "name": "BetPlaced",
      "type": "event"
    },
    {
      "anonymous": false,
      "inputs": [
        {
          "indexed": true,
          "internalType": "uint256",
          "name": "betEventId",
          "type": "uint256"
        },
        {
          "indexed": false,
          "internalType": "uint256",
          "name": "outcome",
          "type": "uint256"
        }
      ],
      "name": "BetSettled",
      "type": "event"
    },
    {
      "anonymous": false,
      "inputs": [
        {
          "indexed": true,
          "internalType": "address",
          "name": "player",
          "type": "address"
        },
        {
          "indexed": false,
          "internalType": "uint256",
          "name": "amount",
          "type": "uint256"
        }
      ],
      "name": "SCHAINDistributed",
      "type": "event"
    },
    {
      "anonymous": false,
      "inputs": [
        {
          "indexed": true,
          "internalType": "uint256",
          "name": "betEventId",
          "type": "uint256"
        },
        {
          "indexed": true,
          "internalType": "address",
          "name": "player",
          "type": "address"
        },
        {
          "indexed": false,
          "internalType": "uint256",
          "name": "amount",
          "type": "uint256"
        }
      ],
      "name": "ShareClaimed",
      "type": "event"
    },
    {
      "inputs": [],
      "name": "OWNER",
      "outputs": [
        {
          "internalType": "address",
          "name": "",
          "type": "address"
        }
      ],
      "stateMutability": "view",
      "type": "function"
    },
    {
      "inputs": [],
      "name": "PERCENTAGE",
      "outputs": [
        {
          "internalType": "uint256",
          "name": "",
          "type": "uint256"
        }
      ],
      "stateMutability": "view",
      "type": "function"
    },
    {
      "inputs": [],
      "name": "PLATFORM_FEE",
      "outputs": [
        {
          "internalType": "uint256",
          "name": "",
          "type": "uint256"
        }
      ],
      "stateMutability": "view",
      "type": "function"
    },
    {
      "inputs": [],
      "name": "PLATFORM_WALLET",
      "outputs": [
        {
          "internalType": "address",
          "name": "",
          "type": "address"
        }
      ],
      "stateMutability": "view",
      "type": "function"
    },
    {
      "inputs": [],
      "name": "SETTLE_REWARD",
      "outputs": [
        {
          "internalType": "uint256",
          "name": "",
          "type": "uint256"
        }
      ],
      "stateMutability": "view",
      "type": "function"
    },
    {
      "inputs": [],
      "name": "SUSTAINABILITY_FEE",
      "outputs": [
        {
          "internalType": "uint256",
          "name": "",
          "type": "uint256"
        }
      ],
      "stateMutability": "view",
      "type": "function"
    },
    {
      "inputs": [],
      "name": "SUSTAINABILITY_FEE_COLLECTOR",
      "outputs": [
        {
          "internalType": "address",
          "name": "",
          "type": "address"
        }
      ],
      "stateMutability": "view",
      "type": "function"
    },
    {
      "inputs": [
        {
          "internalType": "uint256",
          "name": "_amount",
          "type": "uint256"
        }
      ],
      "name": "UpdatePlatformFee",
      "outputs": [],
      "stateMutability": "nonpayable",
      "type": "function"
    },
    {
      "inputs": [
        {
          "internalType": "uint256",
          "name": "_amount",
          "type": "uint256"
        }
      ],
      "name": "UpdateSustainabilityFee",
      "outputs": [],
      "stateMutability": "nonpayable",
      "type": "function"
    },
    {
      "inputs": [
        {
          "internalType": "address",
          "name": "newCollector",
          "type": "address"
        }
      ],
      "name": "UpdateSustainabilityFeeCollector",
      "outputs": [],
      "stateMutability": "nonpayable",
      "type": "function"
    },
    {
      "inputs": [],
      "name": "betEventCount",
      "outputs": [
        {
          "internalType": "uint256",
          "name": "",
          "type": "uint256"
        }
      ],
      "stateMutability": "view",
      "type": "function"
    },
    {
      "inputs": [
        {
          "internalType": "uint256",
          "name": "",
          "type": "uint256"
        }
      ],
      "name": "betEvents",
      "outputs": [
        {
          "internalType": "string",
          "name": "title",
          "type": "string"
        },
        {
          "internalType": "string",
          "name": "description",
          "type": "string"
        },
        {
          "internalType": "uint256",
          "name": "totalPool",
          "type": "uint256"
        },
        {
          "internalType": "uint256",
          "name": "winnerPool",
          "type": "uint256"
        },
        {
          "internalType": "uint256",
          "name": "loserPool",
          "type": "uint256"
        },
        {
          "internalType": "uint256",
          "name": "outcome",
          "type": "uint256"
        },
        {
          "internalType": "bool",
          "name": "betOpen",
          "type": "bool"
        },
        {
          "internalType": "bool",
          "name": "betSettled",
          "type": "bool"
        }
      ],
      "stateMutability": "view",
      "type": "function"
    },
    {
      "inputs": [
        {
          "internalType": "uint256",
          "name": "_betEventId",
          "type": "uint256"
        },
        {
          "internalType": "uint256",
          "name": "_outcome",
          "type": "uint256"
        }
      ],
      "name": "closeBetting",
      "outputs": [],
      "stateMutability": "nonpayable",
      "type": "function"
    },
    {
      "inputs": [
        {
          "internalType": "string",
          "name": "_title",
          "type": "string"
        },
        {
          "internalType": "string",
          "name": "_description",
          "type": "string"
        },
        {
          "internalType": "string[]",
          "name": "_options",
          "type": "string[]"
        }
      ],
      "name": "createBetEvent",
      "outputs": [],
      "stateMutability": "nonpayable",
      "type": "function"
    },
    {
      "inputs": [
        {
          "internalType": "uint256",
          "name": "_betEventId",
          "type": "uint256"
        },
        {
          "internalType": "uint256",
          "name": "_outcome",
          "type": "uint256"
        }
      ],
      "name": "placeBet",
      "outputs": [],
      "stateMutability": "payable",
      "type": "function"
    },
    {
      "inputs": [
        {
          "internalType": "uint256",
          "name": "_betEventId",
          "type": "uint256"
        }
      ],
      "name": "settleBets",
      "outputs": [],
      "stateMutability": "nonpayable",
      "type": "function"
    },
    {
      "inputs": [
        {
          "internalType": "uint256",
          "name": "_betEventId",
          "type": "uint256"
        }
      ],
      "name": "withdrawFunds",
      "outputs": [],
      "stateMutability": "nonpayable",
      "type": "function"
    }
  ],
  "transactionHash": "0xf68641c94f8d5c19a7591cf078bf7f09d8bde4f91466a18fbf21254eea53cddf",
  "args": [],
  "numDeployments": 1,
  "solcInputHash": "007cbeb15a87d3ab020c6805383f96a9",
  "bytecode": "0x6080604052600080546001600160a01b03191673ffd0a549e6982fb553302274d342dd6673b0deee179055670de0b6b3a7640000600155662386f26fc100006002556706f05b59d3b20000600355348015605857600080fd5b5060016004556114018061006d6000396000f3fe6080604052600436106100fd5760003560e01c806334fbc9a11161009557806366da537f1161006457806366da537f146102935780637b4ce223146102b35780637e34647b146102d3578063aab9abdf146102f3578063eb8b12d41461015f57600080fd5b806334fbc9a1146102345780633f558a651461024a5780634afe62b51461026a5780635541f0bd1461027d57600080fd5b80632644fd26116100d15780632644fd26146101c1578063293315f2146101e15780632c309127146101fe5780632e9be1a81461021e57600080fd5b8062f5afa814610102578063107a2c5e1461012b578063117803e31461015f578063155dd5ee1461019f575b600080fd5b34801561010e57600080fd5b5061011860035481565b6040519081526020015b60405180910390f35b34801561013757600080fd5b5061014b610146366004610e5d565b610313565b604051610122989796959493929190610ebc565b34801561016b57600080fd5b5061018773d54d09a4154f47ba8a82e6bda548bcbc348a83e281565b6040516001600160a01b039091168152602001610122565b3480156101ab57600080fd5b506101bf6101ba366004610e5d565b61046a565b005b3480156101cd57600080fd5b506101bf6101dc366004610e5d565b61051c565b3480156101ed57600080fd5b5061011868056bc75e2d6310000081565b34801561020a57600080fd5b506101bf610219366004610e5d565b610554565b34801561022a57600080fd5b5061011860055481565b34801561024057600080fd5b5061011860015481565b34801561025657600080fd5b506101bf610265366004610e5d565b610960565b6101bf610278366004610f1a565b610998565b34801561028957600080fd5b5061011860025481565b34801561029f57600080fd5b506101bf6102ae366004610f1a565b610b0a565b3480156102bf57600080fd5b506101bf6102ce366004610f3c565b610c0f565b3480156102df57600080fd5b50600054610187906001600160a01b031681565b3480156102ff57600080fd5b506101bf61030e366004611023565b610c64565b60066020526000908152604090208054819061032e9061114e565b80601f016020809104026020016040519081016040528092919081815260200182805461035a9061114e565b80156103a75780601f1061037c576101008083540402835291602001916103a7565b820191906000526020600020905b81548152906001019060200180831161038a57829003601f168201915b5050505050908060010180546103bc9061114e565b80601f01602080910402602001604051908101604052809291908181526020018280546103e89061114e565b80156104355780601f1061040a57610100808354040283529160200191610435565b820191906000526020600020905b81548152906001019060200180831161041857829003601f168201915b505050600384015460048501546005860154600687015460079097015495969295919450925060ff8082169161010090041688565b3373d54d09a4154f47ba8a82e6bda548bcbc348a83e21461049e576040516319b83d2d60e31b815260040160405180910390fd5b6000818152600660205260409020600701548190610100900460ff166104d757604051636befeadb60e11b815260040160405180910390fd5b60405173d54d09a4154f47ba8a82e6bda548bcbc348a83e2904780156108fc02916000818181858888f19350505050158015610517573d6000803e3d6000fd5b505050565b3373d54d09a4154f47ba8a82e6bda548bcbc348a83e21461054f576040516265d69360e51b815260040160405180910390fd5b600155565b61055c610d43565b600081815260066020526040902060070154819060ff161561059157604051632685b40360e01b815260040160405180910390fd5b600082815260066020526040902060070154610100900460ff16156105c957604051630229639160e61b815260040160405180910390fd5b6000828152600660205260408120905b600a8201548110156106af57600082600a0182815481106105fc576105fc611188565b600091825260208083209091015460068601546001600160a01b039091168084526008870190925260409092206001015490925003610670576001600160a01b0381166000908152600884016020526040812054600485018054919290916106659084906111b4565b909155506106a69050565b6001600160a01b0381166000908152600884016020526040812054600585018054919290916106a09084906111b4565b90915550505b506001016105d9565b50600068056bc75e2d6310000060015483600301546106ce91906111cd565b6106d891906111e4565b9050600068056bc75e2d6310000060035484600301546106f891906111cd565b61070291906111e4565b9050600068056bc75e2d63100000600254856003015461072291906111cd565b61072c91906111e4565b9050600081838587600301546107429190611206565b61074c9190611206565b6107569190611206565b60405190915073d54d09a4154f47ba8a82e6bda548bcbc348a83e29085156108fc029086906000818181858888f1935050505015801561079a573d6000803e3d6000fd5b50600080546040516001600160a01b039091169185156108fc02918691818181858888f193505050501580156107d4573d6000803e3d6000fd5b5060005b600a8601548110156108cd57600086600a0182815481106107fb576107fb611188565b600091825260208083209091015460068a01546001600160a01b0390911680845260088b01909252604090922060010154909250036108c45760048701546001600160a01b03821660009081526008890160205260408120549091906108629086906111cd565b61086c91906111e4565b6001600160a01b038316600081815260088b016020526040902054919250906108fc9061089990846111b4565b6040518115909202916000818181858888f193505050501580156108c1573d6000803e3d6000fd5b50505b506001016107d8565b50604051339083156108fc029084906000818181858888f193505050501580156108fb573d6000803e3d6000fd5b5060078501805461ff001916610100179055600685015460405188917f209446440b3bc7b90cab90b2b8095e5f368dbec807cfbc01354237a11b45c6369161094591815260200190565b60405180910390a250505050505061095d6001600455565b50565b3373d54d09a4154f47ba8a82e6bda548bcbc348a83e214610993576040516265d69360e51b815260040160405180910390fd5b600355565b600082815260066020526040902060070154829060ff166109cc576040516308fcb87160e41b815260040160405180910390fd5b346000036109ed57604051633e86adad60e21b815260040160405180910390fd5b600083815260066020908152604080832033845260080190915290206002015460ff1615610a2e5760405163ed5b8a8960e01b815260040160405180910390fd5b60008381526006602090815260408083208151606081018352348082528185018881528285018781523380895260088601885295882093518455905160018085019190915590516002909301805460ff191693151593909317909255600a83018054928301815586529385200180546001600160a01b03191690921790915560038101805491939091610ac29084906111b4565b90915550506040805134815260208101859052339186917f1b8a9031cb9351278d70a994f81536e9e08c91162e64f92b2fe4766fb7a891b4910160405180910390a350505050565b3373d54d09a4154f47ba8a82e6bda548bcbc348a83e214610b3e576040516319b83d2d60e31b815260040160405180910390fd5b600082815260066020526040902060070154829060ff16610b72576040516308fcb87160e41b815260040160405180910390fd5b811580610b8f575060008381526006602052604090206002015482115b15610bad576040516392e4a3e560e01b815260040160405180910390fd5b600083815260066020819052604091829020908101849055600701805460ff191690555183907f209446440b3bc7b90cab90b2b8095e5f368dbec807cfbc01354237a11b45c63690610c029085815260200190565b60405180910390a2505050565b3373d54d09a4154f47ba8a82e6bda548bcbc348a83e214610c42576040516265d69360e51b815260040160405180910390fd5b600080546001600160a01b0319166001600160a01b0392909216919091179055565b3373d54d09a4154f47ba8a82e6bda548bcbc348a83e214610c98576040516319b83d2d60e31b815260040160405180910390fd5b60058054906000610ca883611219565b9091555050600554600090815260066020526040902080610cc98582611280565b5060018101610cd88482611280565b508151610cee9060028301906020850190610da0565b5060078101805460ff191660011790556005546040517fc4d79e090dbd35b18979cb0daf964422ff9a5547cc9af41b9101f2779b3735ca90610d359087908790879061133f565b60405180910390a250505050565b600260045403610d995760405162461bcd60e51b815260206004820152601f60248201527f5265656e7472616e637947756172643a207265656e7472616e742063616c6c00604482015260640160405180910390fd5b6002600455565b828054828255906000526020600020908101928215610de6579160200282015b82811115610de65782518290610dd69082611280565b5091602001919060010190610dc0565b50610df2929150610df6565b5090565b80821115610df2576000610e0a8282610e13565b50600101610df6565b508054610e1f9061114e565b6000825580601f10610e2f575050565b601f01602090049060005260206000209081019061095d91905b80821115610df25760008155600101610e49565b600060208284031215610e6f57600080fd5b5035919050565b6000815180845260005b81811015610e9c57602081850181015186830182015201610e80565b506000602082860101526020601f19601f83011685010191505092915050565b61010081526000610ed161010083018b610e76565b8281036020840152610ee3818b610e76565b604084019990995250506060810195909552608085019390935260a0840191909152151560c0830152151560e09091015292915050565b60008060408385031215610f2d57600080fd5b50508035926020909101359150565b600060208284031215610f4e57600080fd5b81356001600160a01b0381168114610f6557600080fd5b9392505050565b634e487b7160e01b600052604160045260246000fd5b604051601f8201601f1916810167ffffffffffffffff81118282101715610fab57610fab610f6c565b604052919050565b600082601f830112610fc457600080fd5b813567ffffffffffffffff811115610fde57610fde610f6c565b610ff1601f8201601f1916602001610f82565b81815284602083860101111561100657600080fd5b816020850160208301376000918101602001919091529392505050565b60008060006060848603121561103857600080fd5b833567ffffffffffffffff81111561104f57600080fd5b61105b86828701610fb3565b935050602084013567ffffffffffffffff81111561107857600080fd5b61108486828701610fb3565b925050604084013567ffffffffffffffff8111156110a157600080fd5b8401601f810186136110b257600080fd5b803567ffffffffffffffff8111156110cc576110cc610f6c565b8060051b6110dc60208201610f82565b918252602081840181019290810190898411156110f857600080fd5b6020850192505b8383101561113f57823567ffffffffffffffff81111561111e57600080fd5b61112d8b602083890101610fb3565b835250602092830192909101906110ff565b80955050505050509250925092565b600181811c9082168061116257607f821691505b60208210810361118257634e487b7160e01b600052602260045260246000fd5b50919050565b634e487b7160e01b600052603260045260246000fd5b634e487b7160e01b600052601160045260246000fd5b808201808211156111c7576111c761119e565b92915050565b80820281158282048414176111c7576111c761119e565b60008261120157634e487b7160e01b600052601260045260246000fd5b500490565b818103818111156111c7576111c761119e565b60006001820161122b5761122b61119e565b5060010190565b601f82111561051757806000526020600020601f840160051c810160208510156112595750805b601f840160051c820191505b818110156112795760008155600101611265565b5050505050565b815167ffffffffffffffff81111561129a5761129a610f6c565b6112ae816112a8845461114e565b84611232565b6020601f8211600181146112e257600083156112ca5750848201515b600019600385901b1c1916600184901b178455611279565b600084815260208120601f198516915b8281101561131257878501518255602094850194600190920191016112f2565b50848210156113305786840151600019600387901b60f8161c191681555b50505050600190811b01905550565b6060815260006113526060830186610e76565b82810360208401526113648186610e76565b9050828103604084015280845180835260208301915060208160051b8401016020870160005b838110156113bc57601f198684030185526113a6838351610e76565b602095860195909350919091019060010161138a565b5090999850505050505050505056fea2646970667358221220372aa98972e3c03852eb409df73f66a29018cc9fab19dd2a7039e8c59d6cb42e64736f6c634300081a0033",
  "devdoc": {
    "custom:security-contact": "franzquarshie@gmail.com",
    "errors": {
      "StakeChain__Unauthorized()": [
        {
          "custom:contact": "franzquarshie@gmail.com"
        }
      ]
    },
    "kind": "dev",
    "methods": {
      "UpdatePlatformFee(uint256)": {
        "details": "Administrative",
        "params": {
          "_amount": "New platform fee"
        }
      },
      "UpdateSustainabilityFee(uint256)": {
        "details": "Administrative",
        "params": {
          "_amount": "New Sustainability fee"
        }
      },
      "UpdateSustainabilityFeeCollector(address)": {
        "details": "Administrative",
        "params": {
          "newCollector": "Update sustainability fee collector"
        }
      }
    },
    "title": "StakeChain",
    "version": 1
  },
  "userdoc": {
    "errors": {
      "StakeChain__Unauthorized()": [
        {
          "notice": "This contract controls the states of the StateChain contract"
        }
      ]
    },
    "kind": "user",
    "methods": {
      "PERCENTAGE()": {
        "notice": "Base percentage used for calculations, representing 100%"
      },
      "PLATFORM_FEE()": {
        "notice": "Fee percentage deducted from each transaction"
      },
      "PLATFORM_WALLET()": {
        "notice": "Platform Account"
      },
      "SETTLE_REWARD()": {
        "notice": "Settle reward percentage for the user who settles the bets"
      },
      "SUSTAINABILITY_FEE()": {
        "notice": "Percentage that goes to environment sustainability"
      }
    },
    "version": 1
  },
  "storageLayout": {
    "storage": [
      {
        "astId": 658,
        "contract": "contracts/StakeChain.sol:StakeChain",
        "label": "SUSTAINABILITY_FEE_COLLECTOR",
        "offset": 0,
        "slot": "0",
        "type": "t_address"
      },
      {
        "astId": 662,
        "contract": "contracts/StakeChain.sol:StakeChain",
        "label": "PLATFORM_FEE",
        "offset": 0,
        "slot": "1",
        "type": "t_uint256"
      },
      {
        "astId": 666,
        "contract": "contracts/StakeChain.sol:StakeChain",
        "label": "SETTLE_REWARD",
        "offset": 0,
        "slot": "2",
        "type": "t_uint256"
      },
      {
        "astId": 670,
        "contract": "contracts/StakeChain.sol:StakeChain",
        "label": "SUSTAINABILITY_FEE",
        "offset": 0,
        "slot": "3",
        "type": "t_uint256"
      },
      {
        "astId": 10,
        "contract": "contracts/StakeChain.sol:StakeChain",
        "label": "_status",
        "offset": 0,
        "slot": "4",
        "type": "t_uint256"
      },
      {
        "astId": 123,
        "contract": "contracts/StakeChain.sol:StakeChain",
        "label": "betEventCount",
        "offset": 0,
        "slot": "5",
        "type": "t_uint256"
      },
      {
        "astId": 128,
        "contract": "contracts/StakeChain.sol:StakeChain",
        "label": "betEvents",
        "offset": 0,
        "slot": "6",
        "type": "t_mapping(t_uint256,t_struct(BetEvent)121_storage)"
      }
    ],
    "types": {
      "t_address": {
        "encoding": "inplace",
        "label": "address",
        "numberOfBytes": "20"
      },
      "t_array(t_address)dyn_storage": {
        "base": "t_address",
        "encoding": "dynamic_array",
        "label": "address[]",
        "numberOfBytes": "32"
      },
      "t_array(t_string_storage)dyn_storage": {
        "base": "t_string_storage",
        "encoding": "dynamic_array",
        "label": "string[]",
        "numberOfBytes": "32"
      },
      "t_bool": {
        "encoding": "inplace",
        "label": "bool",
        "numberOfBytes": "1"
      },
      "t_mapping(t_address,t_struct(Bet)89_storage)": {
        "encoding": "mapping",
        "key": "t_address",
        "label": "mapping(address => struct StakeChain.Bet)",
        "numberOfBytes": "32",
        "value": "t_struct(Bet)89_storage"
      },
      "t_mapping(t_address,t_uint256)": {
        "encoding": "mapping",
        "key": "t_address",
        "label": "mapping(address => uint256)",
        "numberOfBytes": "32",
        "value": "t_uint256"
      },
      "t_mapping(t_uint256,t_struct(BetEvent)121_storage)": {
        "encoding": "mapping",
        "key": "t_uint256",
        "label": "mapping(uint256 => struct StakeChain.BetEvent)",
        "numberOfBytes": "32",
        "value": "t_struct(BetEvent)121_storage"
      },
      "t_string_storage": {
        "encoding": "bytes",
        "label": "string",
        "numberOfBytes": "32"
      },
      "t_struct(Bet)89_storage": {
        "encoding": "inplace",
        "label": "struct StakeChain.Bet",
        "members": [
          {
            "astId": 84,
            "contract": "contracts/StakeChain.sol:StakeChain",
            "label": "amount",
            "offset": 0,
            "slot": "0",
            "type": "t_uint256"
          },
          {
            "astId": 86,
            "contract": "contracts/StakeChain.sol:StakeChain",
            "label": "outcome",
            "offset": 0,
            "slot": "1",
            "type": "t_uint256"
          },
          {
            "astId": 88,
            "contract": "contracts/StakeChain.sol:StakeChain",
            "label": "claimed",
            "offset": 0,
            "slot": "2",
            "type": "t_bool"
          }
        ],
        "numberOfBytes": "96"
      },
      "t_struct(BetEvent)121_storage": {
        "encoding": "inplace",
        "label": "struct StakeChain.BetEvent",
        "members": [
          {
            "astId": 91,
            "contract": "contracts/StakeChain.sol:StakeChain",
            "label": "title",
            "offset": 0,
            "slot": "0",
            "type": "t_string_storage"
          },
          {
            "astId": 93,
            "contract": "contracts/StakeChain.sol:StakeChain",
            "label": "description",
            "offset": 0,
            "slot": "1",
            "type": "t_string_storage"
          },
          {
            "astId": 96,
            "contract": "contracts/StakeChain.sol:StakeChain",
            "label": "options",
            "offset": 0,
            "slot": "2",
            "type": "t_array(t_string_storage)dyn_storage"
          },
          {
            "astId": 98,
            "contract": "contracts/StakeChain.sol:StakeChain",
            "label": "totalPool",
            "offset": 0,
            "slot": "3",
            "type": "t_uint256"
          },
          {
            "astId": 100,
            "contract": "contracts/StakeChain.sol:StakeChain",
            "label": "winnerPool",
            "offset": 0,
            "slot": "4",
            "type": "t_uint256"
          },
          {
            "astId": 102,
            "contract": "contracts/StakeChain.sol:StakeChain",
            "label": "loserPool",
            "offset": 0,
            "slot": "5",
            "type": "t_uint256"
          },
          {
            "astId": 104,
            "contract": "contracts/StakeChain.sol:StakeChain",
            "label": "outcome",
            "offset": 0,
            "slot": "6",
            "type": "t_uint256"
          },
          {
            "astId": 106,
            "contract": "contracts/StakeChain.sol:StakeChain",
            "label": "betOpen",
            "offset": 0,
            "slot": "7",
            "type": "t_bool"
          },
          {
            "astId": 108,
            "contract": "contracts/StakeChain.sol:StakeChain",
            "label": "betSettled",
            "offset": 1,
            "slot": "7",
            "type": "t_bool"
          },
          {
            "astId": 113,
            "contract": "contracts/StakeChain.sol:StakeChain",
            "label": "bets",
            "offset": 0,
            "slot": "8",
            "type": "t_mapping(t_address,t_struct(Bet)89_storage)"
          },
          {
            "astId": 117,
            "contract": "contracts/StakeChain.sol:StakeChain",
            "label": "shares",
            "offset": 0,
            "slot": "9",
            "type": "t_mapping(t_address,t_uint256)"
          },
          {
            "astId": 120,
            "contract": "contracts/StakeChain.sol:StakeChain",
            "label": "players",
            "offset": 0,
            "slot": "10",
            "type": "t_array(t_address)dyn_storage"
          }
        ],
        "numberOfBytes": "352"
      },
      "t_uint256": {
        "encoding": "inplace",
        "label": "uint256",
        "numberOfBytes": "32"
      }
    }
  }
}